{
  "_format": "hh-sol-artifact-1",
  "contractName": "AcademicNFT",
  "sourceName": "contracts/AcademicNFT.sol",
  "abi": [
    {
      "inputs": [
        {
          "internalType": "address",
          "name": "to",
          "type": "address"
        },
        {
          "internalType": "uint256",
          "name": "tokenId",
          "type": "uint256"
        }
      ],
      "name": "approve",
      "outputs": [],
      "stateMutability": "nonpayable",
      "type": "function"
    },
    {
      "inputs": [],
      "stateMutability": "nonpayable",
      "type": "constructor"
    },
    {
      "inputs": [
        {
          "internalType": "address",
          "name": "sender",
          "type": "address"
        },
        {
          "internalType": "uint256",
          "name": "tokenId",
          "type": "uint256"
        },
        {
          "internalType": "address",
          "name": "owner",
          "type": "address"
        }
      ],
      "name": "ERC721IncorrectOwner",
      "type": "error"
    },
    {
      "inputs": [
        {
          "internalType": "address",
          "name": "operator",
          "type": "address"
        },
        {
          "internalType": "uint256",
          "name": "tokenId",
          "type": "uint256"
        }
      ],
      "name": "ERC721InsufficientApproval",
      "type": "error"
    },
    {
      "inputs": [
        {
          "internalType": "address",
          "name": "approver",
          "type": "address"
        }
      ],
      "name": "ERC721InvalidApprover",
      "type": "error"
    },
    {
      "inputs": [
        {
          "internalType": "address",
          "name": "operator",
          "type": "address"
        }
      ],
      "name": "ERC721InvalidOperator",
      "type": "error"
    },
    {
      "inputs": [
        {
          "internalType": "address",
          "name": "owner",
          "type": "address"
        }
      ],
      "name": "ERC721InvalidOwner",
      "type": "error"
    },
    {
      "inputs": [
        {
          "internalType": "address",
          "name": "receiver",
          "type": "address"
        }
      ],
      "name": "ERC721InvalidReceiver",
      "type": "error"
    },
    {
      "inputs": [
        {
          "internalType": "address",
          "name": "sender",
          "type": "address"
        }
      ],
      "name": "ERC721InvalidSender",
      "type": "error"
    },
    {
      "inputs": [
        {
          "internalType": "uint256",
          "name": "tokenId",
          "type": "uint256"
        }
      ],
      "name": "ERC721NonexistentToken",
      "type": "error"
    },
    {
      "inputs": [
        {
          "internalType": "address",
          "name": "student",
          "type": "address"
        },
        {
          "internalType": "string",
          "name": "title",
          "type": "string"
        },
        {
          "internalType": "string",
          "name": "issuer",
          "type": "string"
        },
        {
          "internalType": "string",
          "name": "grade",
          "type": "string"
        },
        {
          "internalType": "string",
          "name": "tokenURI",
          "type": "string"
        }
      ],
      "name": "issueCertificate",
      "outputs": [
        {
          "internalType": "uint256",
          "name": "",
          "type": "uint256"
        }
      ],
      "stateMutability": "nonpayable",
      "type": "function"
    },
    {
      "inputs": [
        {
          "internalType": "address",
          "name": "owner",
          "type": "address"
        }
      ],
      "name": "OwnableInvalidOwner",
      "type": "error"
    },
    {
      "inputs": [
        {
          "internalType": "address",
          "name": "account",
          "type": "address"
        }
      ],
      "name": "OwnableUnauthorizedAccount",
      "type": "error"
    },
    {
      "anonymous": false,
      "inputs": [
        {
          "indexed": true,
          "internalType": "address",
          "name": "owner",
          "type": "address"
        },
        {
          "indexed": true,
          "internalType": "address",
          "name": "approved",
          "type": "address"
        },
        {
          "indexed": true,
          "internalType": "uint256",
          "name": "tokenId",
          "type": "uint256"
        }
      ],
      "name": "Approval",
      "type": "event"
    },
    {
      "anonymous": false,
      "inputs": [
        {
          "indexed": true,
          "internalType": "address",
          "name": "owner",
          "type": "address"
        },
        {
          "indexed": true,
          "internalType": "address",
          "name": "operator",
          "type": "address"
        },
        {
          "indexed": false,
          "internalType": "bool",
          "name": "approved",
          "type": "bool"
        }
      ],
      "name": "ApprovalForAll",
      "type": "event"
    },
    {
      "anonymous": false,
      "inputs": [
        {
          "indexed": false,
          "internalType": "uint256",
          "name": "_fromTokenId",
          "type": "uint256"
        },
        {
          "indexed": false,
          "internalType": "uint256",
          "name": "_toTokenId",
          "type": "uint256"
        }
      ],
      "name": "BatchMetadataUpdate",
      "type": "event"
    },
    {
      "anonymous": false,
      "inputs": [
        {
          "indexed": false,
          "internalType": "uint256",
          "name": "_tokenId",
          "type": "uint256"
        }
      ],
      "name": "MetadataUpdate",
      "type": "event"
    },
    {
      "anonymous": false,
      "inputs": [
        {
          "indexed": true,
          "internalType": "address",
          "name": "previousOwner",
          "type": "address"
        },
        {
          "indexed": true,
          "internalType": "address",
          "name": "newOwner",
          "type": "address"
        }
      ],
      "name": "OwnershipTransferred",
      "type": "event"
    },
    {
      "inputs": [],
      "name": "renounceOwnership",
      "outputs": [],
      "stateMutability": "nonpayable",
      "type": "function"
    },
    {
      "inputs": [
        {
          "internalType": "address",
          "name": "from",
          "type": "address"
        },
        {
          "internalType": "address",
          "name": "to",
          "type": "address"
        },
        {
          "internalType": "uint256",
          "name": "tokenId",
          "type": "uint256"
        }
      ],
      "name": "safeTransferFrom",
      "outputs": [],
      "stateMutability": "nonpayable",
      "type": "function"
    },
    {
      "inputs": [
        {
          "internalType": "address",
          "name": "from",
          "type": "address"
        },
        {
          "internalType": "address",
          "name": "to",
          "type": "address"
        },
        {
          "internalType": "uint256",
          "name": "tokenId",
          "type": "uint256"
        },
        {
          "internalType": "bytes",
          "name": "data",
          "type": "bytes"
        }
      ],
      "name": "safeTransferFrom",
      "outputs": [],
      "stateMutability": "nonpayable",
      "type": "function"
    },
    {
      "inputs": [
        {
          "internalType": "address",
          "name": "operator",
          "type": "address"
        },
        {
          "internalType": "bool",
          "name": "approved",
          "type": "bool"
        }
      ],
      "name": "setApprovalForAll",
      "outputs": [],
      "stateMutability": "nonpayable",
      "type": "function"
    },
    {
      "anonymous": false,
      "inputs": [
        {
          "indexed": true,
          "internalType": "address",
          "name": "from",
          "type": "address"
        },
        {
          "indexed": true,
          "internalType": "address",
          "name": "to",
          "type": "address"
        },
        {
          "indexed": true,
          "internalType": "uint256",
          "name": "tokenId",
          "type": "uint256"
        }
      ],
      "name": "Transfer",
      "type": "event"
    },
    {
      "inputs": [
        {
          "internalType": "address",
          "name": "from",
          "type": "address"
        },
        {
          "internalType": "address",
          "name": "to",
          "type": "address"
        },
        {
          "internalType": "uint256",
          "name": "tokenId",
          "type": "uint256"
        }
      ],
      "name": "transferFrom",
      "outputs": [],
      "stateMutability": "nonpayable",
      "type": "function"
    },
    {
      "inputs": [
        {
          "internalType": "address",
          "name": "newOwner",
          "type": "address"
        }
      ],
      "name": "transferOwnership",
      "outputs": [],
      "stateMutability": "nonpayable",
      "type": "function"
    },
    {
      "inputs": [
        {
          "internalType": "address",
          "name": "owner",
          "type": "address"
        }
      ],
      "name": "balanceOf",
      "outputs": [
        {
          "internalType": "uint256",
          "name": "",
          "type": "uint256"
        }
      ],
      "stateMutability": "view",
      "type": "function"
    },
    {
      "inputs": [
        {
          "internalType": "uint256",
          "name": "",
          "type": "uint256"
        }
      ],
      "name": "certificates",
      "outputs": [
        {
          "internalType": "address",
          "name": "student",
          "type": "address"
        },
        {
          "internalType": "string",
          "name": "title",
          "type": "string"
        },
        {
          "internalType": "string",
          "name": "issuer",
          "type": "string"
        },
        {
          "internalType": "string",
          "name": "grade",
          "type": "string"
        },
        {
          "internalType": "uint256",
          "name": "issueDate",
          "type": "uint256"
        }
      ],
      "stateMutability": "view",
      "type": "function"
    },
    {
      "inputs": [
        {
          "internalType": "uint256",
          "name": "tokenId",
          "type": "uint256"
        }
      ],
      "name": "getApproved",
      "outputs": [
        {
          "internalType": "address",
          "name": "",
          "type": "address"
        }
      ],
      "stateMutability": "view",
      "type": "function"
    },
    {
      "inputs": [
        {
          "internalType": "address",
          "name": "owner",
          "type": "address"
        },
        {
          "internalType": "address",
          "name": "operator",
          "type": "address"
        }
      ],
      "name": "isApprovedForAll",
      "outputs": [
        {
          "internalType": "bool",
          "name": "",
          "type": "bool"
        }
      ],
      "stateMutability": "view",
      "type": "function"
    },
    {
      "inputs": [],
      "name": "name",
      "outputs": [
        {
          "internalType": "string",
          "name": "",
          "type": "string"
        }
      ],
      "stateMutability": "view",
      "type": "function"
    },
    {
      "inputs": [],
      "name": "owner",
      "outputs": [
        {
          "internalType": "address",
          "name": "",
          "type": "address"
        }
      ],
      "stateMutability": "view",
      "type": "function"
    },
    {
      "inputs": [
        {
          "internalType": "uint256",
          "name": "tokenId",
          "type": "uint256"
        }
      ],
      "name": "ownerOf",
      "outputs": [
        {
          "internalType": "address",
          "name": "",
          "type": "address"
        }
      ],
      "stateMutability": "view",
      "type": "function"
    },
    {
      "inputs": [
        {
          "internalType": "bytes4",
          "name": "interfaceId",
          "type": "bytes4"
        }
      ],
      "name": "supportsInterface",
      "outputs": [
        {
          "internalType": "bool",
          "name": "",
          "type": "bool"
        }
      ],
      "stateMutability": "view",
      "type": "function"
    },
    {
      "inputs": [],
      "name": "symbol",
      "outputs": [
        {
          "internalType": "string",
          "name": "",
          "type": "string"
        }
      ],
      "stateMutability": "view",
      "type": "function"
    },
    {
      "inputs": [
        {
          "internalType": "uint256",
          "name": "tokenId",
          "type": "uint256"
        }
      ],
      "name": "tokenURI",
      "outputs": [
        {
          "internalType": "string",
          "name": "",
          "type": "string"
        }
      ],
      "stateMutability": "view",
      "type": "function"
    }
  ],
  "bytecode": "0x608060405234801561001057600080fd5b50336040518060400160405280601381526020017f41636164656d69634365727469666963617465000000000000000000000000008152506040518060400160405280600581526020017f4143455254000000000000000000000000000000000000000000000000000000815250816000908161008d919061043d565b50806001908161009d919061043d565b505050600073ffffffffffffffffffffffffffffffffffffffff168173ffffffffffffffffffffffffffffffffffffffff16036101125760006040517f1e4fbdf70000000000000000000000000000000000000000000000000000000081526004016101099190610550565b60405180910390fd5b6101218161012760201b60201c565b5061056b565b6000600760009054906101000a900473ffffffffffffffffffffffffffffffffffffffff16905081600760006101000a81548173ffffffffffffffffffffffffffffffffffffffff021916908373ffffffffffffffffffffffffffffffffffffffff1602179055508173ffffffffffffffffffffffffffffffffffffffff168173ffffffffffffffffffffffffffffffffffffffff167f8be0079c531659141344cd1fd0a4f28419497f9722a3daafe3b4186f6b6457e060405160405180910390a35050565b600081519050919050565b7f4e487b7100000000000000000000000000000000000000000000000000000000600052604160045260246000fd5b7f4e487b7100000000000000000000000000000000000000000000000000000000600052602260045260246000fd5b6000600282049050600182168061026e57607f821691505b60208210810361028157610280610227565b5b50919050565b60008190508160005260206000209050919050565b60006020601f8301049050919050565b600082821b905092915050565b6000600883026102e97fffffffffffffffffffffffffffffffffffffffffffffffffffffffffffffffff826102ac565b6102f386836102ac565b95508019841693508086168417925050509392505050565b6000819050919050565b6000819050919050565b600061033a6103356103308461030b565b610315565b61030b565b9050919050565b6000819050919050565b6103548361031f565b61036861036082610341565b8484546102b9565b825550505050565b600090565b61037d610370565b61038881848461034b565b505050565b5b818110156103ac576103a1600082610375565b60018101905061038e565b5050565b601f8211156103f1576103c281610287565b6103cb8461029c565b810160208510156103da578190505b6103ee6103e68561029c565b83018261038d565b50505b505050565b600082821c905092915050565b6000610414600019846008026103f6565b1980831691505092915050565b600061042d8383610403565b9150826002028217905092915050565b610446826101ed565b67ffffffffffffffff81111561045f5761045e6101f8565b5b6104698254610256565b6104748282856103b0565b600060209050601f8311600181146104a75760008415610495578287015190505b61049f8582610421565b865550610507565b601f1984166104b586610287565b60005b828110156104dd578489015182556001820191506020850194506020810190506104b8565b868310156104fa57848901516104f6601f891682610403565b8355505b6001600288020188555050505b505050505050565b600073ffffffffffffffffffffffffffffffffffffffff82169050919050565b600061053a8261050f565b9050919050565b61054a8161052f565b82525050565b60006020820190506105656000830184610541565b92915050565b61293d8061057a6000396000f3fe608060405234801561001057600080fd5b50600436106101165760003560e01c806370a08231116100a2578063a22cb46511610071578063a22cb465146102f6578063b88d4fde14610312578063c87b56dd1461032e578063e985e9c51461035e578063f2fde38b1461038e57610116565b806370a0823114610280578063715018a6146102b05780638da5cb5b146102ba57806395d89b41146102d857610116565b806323b872dd116100e957806323b872dd146101b557806342842e0e146101d15780634a321d2e146101ed5780636352211e1461021d578063663b3e221461024d57610116565b806301ffc9a71461011b57806306fdde031461014b578063081812fc14610169578063095ea7b314610199575b600080fd5b61013560048036038101906101309190611ccf565b6103aa565b6040516101429190611d17565b60405180910390f35b61015361040b565b6040516101609190611dc2565b60405180910390f35b610183600480360381019061017e9190611e1a565b61049d565b6040516101909190611e88565b60405180910390f35b6101b360048036038101906101ae9190611ecf565b6104b9565b005b6101cf60048036038101906101ca9190611f0f565b6104cf565b005b6101eb60048036038101906101e69190611f0f565b6105d1565b005b61020760048036038101906102029190612097565b6105f1565b6040516102149190612175565b60405180910390f35b61023760048036038101906102329190611e1a565b6106ae565b6040516102449190611e88565b60405180910390f35b61026760048036038101906102629190611e1a565b6106c0565b6040516102779493929190612190565b60405180910390f35b61029a600480360381019061029591906121e3565b610800565b6040516102a79190612175565b60405180910390f35b6102b86108ba565b005b6102c26108ce565b6040516102cf9190611e88565b60405180910390f35b6102e06108f8565b6040516102ed9190611dc2565b60405180910390f35b610310600480360381019061030b919061223c565b61098a565b005b61032c6004803603810190610327919061231d565b6109a0565b005b61034860048036038101906103439190611e1a565b6109c5565b6040516103559190611dc2565b60405180910390f35b610378600480360381019061037391906123a0565b610ad8565b6040516103859190611d17565b60405180910390f35b6103a860048036038101906103a391906121e3565b610b6c565b005b6000634906490660e01b7bffffffffffffffffffffffffffffffffffffffffffffffffffffffff1916827bffffffffffffffffffffffffffffffffffffffffffffffffffffffff19161480610404575061040382610bf2565b5b9050919050565b60606000805461041a9061240f565b80601f01602080910402602001604051908101604052809291908181526020018280546104469061240f565b80156104935780601f1061046857610100808354040283529160200191610493565b820191906000526020600020905b81548152906001019060200180831161047657829003601f168201915b5050505050905090565b60006104a882610cd4565b506104b282610d5c565b9050919050565b6104cb82826104c6610d99565b610da1565b5050565b600073ffffffffffffffffffffffffffffffffffffffff168273ffffffffffffffffffffffffffffffffffffffff16036105415760006040517f64a0ae920000000000000000000000000000000000000000000000000000000081526004016105389190611e88565b60405180910390fd5b60006105558383610550610d99565b610db3565b90508373ffffffffffffffffffffffffffffffffffffffff168173ffffffffffffffffffffffffffffffffffffffff16146105cb578382826040517f64283d7b0000000000000000000000000000000000000000000000000000000081526004016105c293929190612440565b60405180910390fd5b50505050565b6105ec838383604051806020016040528060008152506109a0565b505050565b60006105fb610fcd565b600060086000815480929190610610906124a6565b9190505590506106208782611054565b61062a8184611072565b604051806080016040528087815260200186815260200185815260200142815250600960008381526020019081526020016000206000820151816000019081610673919061269a565b506020820151816001019081610689919061269a565b5060408201518160020155606082015181600301559050508091505095945050505050565b60006106b982610cd4565b9050919050565b60096020528060005260406000206000915090508060000180546106e39061240f565b80601f016020809104026020016040519081016040528092919081815260200182805461070f9061240f565b801561075c5780601f106107315761010080835404028352916020019161075c565b820191906000526020600020905b81548152906001019060200180831161073f57829003601f168201915b5050505050908060010180546107719061240f565b80601f016020809104026020016040519081016040528092919081815260200182805461079d9061240f565b80156107ea5780601f106107bf576101008083540402835291602001916107ea565b820191906000526020600020905b8154815290600101906020018083116107cd57829003601f168201915b5050505050908060020154908060030154905084565b60008073ffffffffffffffffffffffffffffffffffffffff168273ffffffffffffffffffffffffffffffffffffffff16036108735760006040517f89c62b6400000000000000000000000000000000000000000000000000000000815260040161086a9190611e88565b60405180910390fd5b600360008373ffffffffffffffffffffffffffffffffffffffff1673ffffffffffffffffffffffffffffffffffffffff168152602001908152602001600020549050919050565b6108c2610fcd565b6108cc60006110ce565b565b6000600760009054906101000a900473ffffffffffffffffffffffffffffffffffffffff16905090565b6060600180546109079061240f565b80601f01602080910402602001604051908101604052809291908181526020018280546109339061240f565b80156109805780601f1061095557610100808354040283529160200191610980565b820191906000526020600020905b81548152906001019060200180831161096357829003601f168201915b5050505050905090565b61099c610995610d99565b8383611194565b5050565b6109ab8484846104cf565b6109bf6109b6610d99565b85858585611303565b50505050565b60606109d082610cd4565b5060006006600084815260200190815260200160002080546109f19061240f565b80601f0160208091040260200160405190810160405280929190818152602001828054610a1d9061240f565b8015610a6a5780601f10610a3f57610100808354040283529160200191610a6a565b820191906000526020600020905b815481529060010190602001808311610a4d57829003601f168201915b505050505090506000610a7b6114b4565b90506000815103610a90578192505050610ad3565b600082511115610ac5578082604051602001610aad9291906127a8565b60405160208183030381529060405292505050610ad3565b610ace846114cb565b925050505b919050565b6000600560008473ffffffffffffffffffffffffffffffffffffffff1673ffffffffffffffffffffffffffffffffffffffff16815260200190815260200160002060008373ffffffffffffffffffffffffffffffffffffffff1673ffffffffffffffffffffffffffffffffffffffff16815260200190815260200160002060009054906101000a900460ff16905092915050565b610b74610fcd565b600073ffffffffffffffffffffffffffffffffffffffff168173ffffffffffffffffffffffffffffffffffffffff1603610be65760006040517f1e4fbdf7000000000000000000000000000000000000000000000000000000008152600401610bdd9190611e88565b60405180910390fd5b610bef816110ce565b50565b60007f80ac58cd000000000000000000000000000000000000000000000000000000007bffffffffffffffffffffffffffffffffffffffffffffffffffffffff1916827bffffffffffffffffffffffffffffffffffffffffffffffffffffffff19161480610cbd57507f5b5e139f000000000000000000000000000000000000000000000000000000007bffffffffffffffffffffffffffffffffffffffffffffffffffffffff1916827bffffffffffffffffffffffffffffffffffffffffffffffffffffffff1916145b80610ccd5750610ccc82611534565b5b9050919050565b600080610ce08361159e565b9050600073ffffffffffffffffffffffffffffffffffffffff168173ffffffffffffffffffffffffffffffffffffffff1603610d5357826040517f7e273289000000000000000000000000000000000000000000000000000000008152600401610d4a9190612175565b60405180910390fd5b80915050919050565b60006004600083815260200190815260200160002060009054906101000a900473ffffffffffffffffffffffffffffffffffffffff169050919050565b600033905090565b610dae83838360016115db565b505050565b600080610dbf8461159e565b9050600073ffffffffffffffffffffffffffffffffffffffff168373ffffffffffffffffffffffffffffffffffffffff1614610e0157610e008184866117a0565b5b600073ffffffffffffffffffffffffffffffffffffffff168173ffffffffffffffffffffffffffffffffffffffff1614610e9257610e436000856000806115db565b6001600360008373ffffffffffffffffffffffffffffffffffffffff1673ffffffffffffffffffffffffffffffffffffffff168152602001908152602001600020600082825403925050819055505b600073ffffffffffffffffffffffffffffffffffffffff168573ffffffffffffffffffffffffffffffffffffffff1614610f15576001600360008773ffffffffffffffffffffffffffffffffffffffff1673ffffffffffffffffffffffffffffffffffffffff168152602001908152602001600020600082825401925050819055505b846002600086815260200190815260200160002060006101000a81548173ffffffffffffffffffffffffffffffffffffffff021916908373ffffffffffffffffffffffffffffffffffffffff160217905550838573ffffffffffffffffffffffffffffffffffffffff168273ffffffffffffffffffffffffffffffffffffffff167fddf252ad1be2c89b69c2b068fc378daa952ba7f163c4a11628f55a4df523b3ef60405160405180910390a4809150509392505050565b610fd5610d99565b73ffffffffffffffffffffffffffffffffffffffff16610ff36108ce565b73ffffffffffffffffffffffffffffffffffffffff161461105257611016610d99565b6040517f118cdaa70000000000000000000000000000000000000000000000000000000081526004016110499190611e88565b60405180910390fd5b565b61106e828260405180602001604052806000815250611864565b5050565b80600660008481526020019081526020016000209081611092919061269a565b507ff8e1a15aba9398e019f0b49df1a4fde98ee17ae345cb5f6b5e2c27f5033e8ce7826040516110c29190612175565b60405180910390a15050565b6000600760009054906101000a900473ffffffffffffffffffffffffffffffffffffffff16905081600760006101000a81548173ffffffffffffffffffffffffffffffffffffffff021916908373ffffffffffffffffffffffffffffffffffffffff1602179055508173ffffffffffffffffffffffffffffffffffffffff168173ffffffffffffffffffffffffffffffffffffffff167f8be0079c531659141344cd1fd0a4f28419497f9722a3daafe3b4186f6b6457e060405160405180910390a35050565b600073ffffffffffffffffffffffffffffffffffffffff168273ffffffffffffffffffffffffffffffffffffffff160361120557816040517f5b08ba180000000000000000000000000000000000000000000000000000000081526004016111fc9190611e88565b60405180910390fd5b80600560008573ffffffffffffffffffffffffffffffffffffffff1673ffffffffffffffffffffffffffffffffffffffff16815260200190815260200160002060008473ffffffffffffffffffffffffffffffffffffffff1673ffffffffffffffffffffffffffffffffffffffff16815260200190815260200160002060006101000a81548160ff0219169083151502179055508173ffffffffffffffffffffffffffffffffffffffff168373ffffffffffffffffffffffffffffffffffffffff167f17307eab39ab6107e8899845ad3d59bd9653f200f220920489ca2b5937696c31836040516112f69190611d17565b60405180910390a3505050565b60008373ffffffffffffffffffffffffffffffffffffffff163b11156114ad578273ffffffffffffffffffffffffffffffffffffffff1663150b7a02868685856040518563ffffffff1660e01b81526004016113629493929190612821565b6020604051808303816000875af192505050801561139e57506040513d601f19601f8201168201806040525081019061139b9190612882565b60015b611422573d80600081146113ce576040519150601f19603f3d011682016040523d82523d6000602084013e6113d3565b606091505b50600081510361141a57836040517f64a0ae920000000000000000000000000000000000000000000000000000000081526004016114119190611e88565b60405180910390fd5b805181602001fd5b63150b7a0260e01b7bffffffffffffffffffffffffffffffffffffffffffffffffffffffff1916817bffffffffffffffffffffffffffffffffffffffffffffffffffffffff1916146114ab57836040517f64a0ae920000000000000000000000000000000000000000000000000000000081526004016114a29190611e88565b60405180910390fd5b505b5050505050565b606060405180602001604052806000815250905090565b60606114d682610cd4565b5060006114e16114b4565b90506000815111611501576040518060200160405280600081525061152c565b8061150b84611888565b60405160200161151c9291906127a8565b6040516020818303038152906040525b915050919050565b60007f01ffc9a7000000000000000000000000000000000000000000000000000000007bffffffffffffffffffffffffffffffffffffffffffffffffffffffff1916827bffffffffffffffffffffffffffffffffffffffffffffffffffffffff1916149050919050565b60006002600083815260200190815260200160002060009054906101000a900473ffffffffffffffffffffffffffffffffffffffff169050919050565b80806116145750600073ffffffffffffffffffffffffffffffffffffffff168273ffffffffffffffffffffffffffffffffffffffff1614155b1561174857600061162484610cd4565b9050600073ffffffffffffffffffffffffffffffffffffffff168373ffffffffffffffffffffffffffffffffffffffff161415801561168f57508273ffffffffffffffffffffffffffffffffffffffff168173ffffffffffffffffffffffffffffffffffffffff1614155b80156116a257506116a08184610ad8565b155b156116e457826040517fa9fbf51f0000000000000000000000000000000000000000000000000000000081526004016116db9190611e88565b60405180910390fd5b811561174657838573ffffffffffffffffffffffffffffffffffffffff168273ffffffffffffffffffffffffffffffffffffffff167f8c5be1e5ebec7d5bd14f71427d1e84f3dd0314c0f7b2291e5b200ac8c7c3b92560405160405180910390a45b505b836004600085815260200190815260200160002060006101000a81548173ffffffffffffffffffffffffffffffffffffffff021916908373ffffffffffffffffffffffffffffffffffffffff16021790555050505050565b6117ab838383611956565b61185f57600073ffffffffffffffffffffffffffffffffffffffff168373ffffffffffffffffffffffffffffffffffffffff160361182057806040517f7e2732890000000000000000000000000000000000000000000000000000000081526004016118179190612175565b60405180910390fd5b81816040517f177e802f0000000000000000000000000000000000000000000000000000000081526004016118569291906128af565b60405180910390fd5b505050565b61186e8383611a17565b611883611879610d99565b6000858585611303565b505050565b60606000600161189784611b10565b01905060008167ffffffffffffffff8111156118b6576118b5611f6c565b5b6040519080825280601f01601f1916602001820160405280156118e85781602001600182028036833780820191505090505b509050600082602001820190505b60011561194b578080600190039150507f3031323334353637383961626364656600000000000000000000000000000000600a86061a8153600a858161193f5761193e6128d8565b5b049450600085036118f6575b819350505050919050565b60008073ffffffffffffffffffffffffffffffffffffffff168373ffffffffffffffffffffffffffffffffffffffff1614158015611a0e57508273ffffffffffffffffffffffffffffffffffffffff168473ffffffffffffffffffffffffffffffffffffffff1614806119cf57506119ce8484610ad8565b5b80611a0d57508273ffffffffffffffffffffffffffffffffffffffff166119f583610d5c565b73ffffffffffffffffffffffffffffffffffffffff16145b5b90509392505050565b600073ffffffffffffffffffffffffffffffffffffffff168273ffffffffffffffffffffffffffffffffffffffff1603611a895760006040517f64a0ae92000000000000000000000000000000000000000000000000000000008152600401611a809190611e88565b60405180910390fd5b6000611a9783836000610db3565b9050600073ffffffffffffffffffffffffffffffffffffffff168173ffffffffffffffffffffffffffffffffffffffff1614611b0b5760006040517f73c6ac6e000000000000000000000000000000000000000000000000000000008152600401611b029190611e88565b60405180910390fd5b505050565b600080600090507a184f03e93ff9f4daa797ed6e38ed64bf6a1f0100000000000000008310611b6e577a184f03e93ff9f4daa797ed6e38ed64bf6a1f0100000000000000008381611b6457611b636128d8565b5b0492506040810190505b6d04ee2d6d415b85acef81000000008310611bab576d04ee2d6d415b85acef81000000008381611ba157611ba06128d8565b5b0492506020810190505b662386f26fc100008310611bda57662386f26fc100008381611bd057611bcf6128d8565b5b0492506010810190505b6305f5e1008310611c03576305f5e1008381611bf957611bf86128d8565b5b0492506008810190505b6127108310611c28576127108381611c1e57611c1d6128d8565b5b0492506004810190505b60648310611c4b5760648381611c4157611c406128d8565b5b0492506002810190505b600a8310611c5a576001810190505b80915050919050565b6000604051905090565b600080fd5b600080fd5b60007fffffffff0000000000000000000000000000000000000000000000000000000082169050919050565b611cac81611c77565b8114611cb757600080fd5b50565b600081359050611cc981611ca3565b92915050565b600060208284031215611ce557611ce4611c6d565b5b6000611cf384828501611cba565b91505092915050565b60008115159050919050565b611d1181611cfc565b82525050565b6000602082019050611d2c6000830184611d08565b92915050565b600081519050919050565b600082825260208201905092915050565b60005b83811015611d6c578082015181840152602081019050611d51565b60008484015250505050565b6000601f19601f8301169050919050565b6000611d9482611d32565b611d9e8185611d3d565b9350611dae818560208601611d4e565b611db781611d78565b840191505092915050565b60006020820190508181036000830152611ddc8184611d89565b905092915050565b6000819050919050565b611df781611de4565b8114611e0257600080fd5b50565b600081359050611e1481611dee565b92915050565b600060208284031215611e3057611e2f611c6d565b5b6000611e3e84828501611e05565b91505092915050565b600073ffffffffffffffffffffffffffffffffffffffff82169050919050565b6000611e7282611e47565b9050919050565b611e8281611e67565b82525050565b6000602082019050611e9d6000830184611e79565b92915050565b611eac81611e67565b8114611eb757600080fd5b50565b600081359050611ec981611ea3565b92915050565b60008060408385031215611ee657611ee5611c6d565b5b6000611ef485828601611eba565b9250506020611f0585828601611e05565b9150509250929050565b600080600060608486031215611f2857611f27611c6d565b5b6000611f3686828701611eba565b9350506020611f4786828701611eba565b9250506040611f5886828701611e05565b9150509250925092565b600080fd5b600080fd5b7f4e487b7100000000000000000000000000000000000000000000000000000000600052604160045260246000fd5b611fa482611d78565b810181811067ffffffffffffffff82111715611fc357611fc2611f6c565b5b80604052505050565b6000611fd6611c63565b9050611fe28282611f9b565b919050565b600067ffffffffffffffff82111561200257612001611f6c565b5b61200b82611d78565b9050602081019050919050565b82818337600083830152505050565b600061203a61203584611fe7565b611fcc565b90508281526020810184848401111561205657612055611f67565b5b612061848285612018565b509392505050565b600082601f83011261207e5761207d611f62565b5b813561208e848260208601612027565b91505092915050565b600080600080600060a086880312156120b3576120b2611c6d565b5b60006120c188828901611eba565b955050602086013567ffffffffffffffff8111156120e2576120e1611c72565b5b6120ee88828901612069565b945050604086013567ffffffffffffffff81111561210f5761210e611c72565b5b61211b88828901612069565b935050606061212c88828901611e05565b925050608086013567ffffffffffffffff81111561214d5761214c611c72565b5b61215988828901612069565b9150509295509295909350565b61216f81611de4565b82525050565b600060208201905061218a6000830184612166565b92915050565b600060808201905081810360008301526121aa8187611d89565b905081810360208301526121be8186611d89565b90506121cd6040830185612166565b6121da6060830184612166565b95945050505050565b6000602082840312156121f9576121f8611c6d565b5b600061220784828501611eba565b91505092915050565b61221981611cfc565b811461222457600080fd5b50565b60008135905061223681612210565b92915050565b6000806040838503121561225357612252611c6d565b5b600061226185828601611eba565b925050602061227285828601612227565b9150509250929050565b600067ffffffffffffffff82111561229757612296611f6c565b5b6122a082611d78565b9050602081019050919050565b60006122c06122bb8461227c565b611fcc565b9050828152602081018484840111156122dc576122db611f67565b5b6122e7848285612018565b509392505050565b600082601f83011261230457612303611f62565b5b81356123148482602086016122ad565b91505092915050565b6000806000806080858703121561233757612336611c6d565b5b600061234587828801611eba565b945050602061235687828801611eba565b935050604061236787828801611e05565b925050606085013567ffffffffffffffff81111561238857612387611c72565b5b612394878288016122ef565b91505092959194509250565b600080604083850312156123b7576123b6611c6d565b5b60006123c585828601611eba565b92505060206123d685828601611eba565b9150509250929050565b7f4e487b7100000000000000000000000000000000000000000000000000000000600052602260045260246000fd5b6000600282049050600182168061242757607f821691505b60208210810361243a576124396123e0565b5b50919050565b60006060820190506124556000830186611e79565b6124626020830185612166565b61246f6040830184611e79565b949350505050565b7f4e487b7100000000000000000000000000000000000000000000000000000000600052601160045260246000fd5b60006124b182611de4565b91507fffffffffffffffffffffffffffffffffffffffffffffffffffffffffffffffff82036124e3576124e2612477565b5b600182019050919050565b60008190508160005260206000209050919050565b60006020601f8301049050919050565b600082821b905092915050565b6000600883026125507fffffffffffffffffffffffffffffffffffffffffffffffffffffffffffffffff82612513565b61255a8683612513565b95508019841693508086168417925050509392505050565b6000819050919050565b600061259761259261258d84611de4565b612572565b611de4565b9050919050565b6000819050919050565b6125b18361257c565b6125c56125bd8261259e565b848454612520565b825550505050565b600090565b6125da6125cd565b6125e58184846125a8565b505050565b5b81811015612609576125fe6000826125d2565b6001810190506125eb565b5050565b601f82111561264e5761261f816124ee565b61262884612503565b81016020851015612637578190505b61264b61264385612503565b8301826125ea565b50505b505050565b600082821c905092915050565b600061267160001984600802612653565b1980831691505092915050565b600061268a8383612660565b9150826002028217905092915050565b6126a382611d32565b67ffffffffffffffff8111156126bc576126bb611f6c565b5b6126c6825461240f565b6126d182828561260d565b600060209050601f83116001811461270457600084156126f2578287015190505b6126fc858261267e565b865550612764565b601f198416612712866124ee565b60005b8281101561273a57848901518255600182019150602085019450602081019050612715565b868310156127575784890151612753601f891682612660565b8355505b6001600288020188555050505b505050505050565b600081905092915050565b600061278282611d32565b61278c818561276c565b935061279c818560208601611d4e565b80840191505092915050565b60006127b48285612777565b91506127c08284612777565b91508190509392505050565b600081519050919050565b600082825260208201905092915050565b60006127f3826127cc565b6127fd81856127d7565b935061280d818560208601611d4e565b61281681611d78565b840191505092915050565b60006080820190506128366000830187611e79565b6128436020830186611e79565b6128506040830185612166565b818103606083015261286281846127e8565b905095945050505050565b60008151905061287c81611ca3565b92915050565b60006020828403121561289857612897611c6d565b5b60006128a68482850161286d565b91505092915050565b60006040820190506128c46000830185611e79565b6128d16020830184612166565b9392505050565b7f4e487b7100000000000000000000000000000000000000000000000000000000600052601260045260246000fdfea26469706673582212206ae3ea761d4186e56683ce3804f8d4067b739c4fefbf502cc83c784c76e7e15264736f6c634300081c0033",
  "linkReferences": {},
  "deployedLinkReferences": {}
}